:020000040000FA
:020000000B28CB
:10000800DE00030E8312B0000A08B10047290C284D
:100018008313203084002C308A21830113282A215D
:10002800003064218312A4018B171A282B03031DA7
:100038001E281F289F288B122908B6003608AA00F8
:10004800AB018B120130B6003608A7072108031D43
:100058002E282F2844280F302A05B60009303606E6
:10006800031D372838289F2887168712A701A20161
:10007800A101A10A8B130130F5208B179F289F2817
:1000880083122103031D49284A28672805302702BF
:10009800031C4F2850289F28A7011F302A05B600A7
:1000A80003303606031D59285A285F28A201A20AE0
:1000B800871587116128A20161280230B600360829
:1000C800A1009F289F2802302106031D6C286D2857
:1000D8007F2805302702031C722873289F28A70150
:1000E8002A081F39B6003608A6000330B6003608BD
:1000F800A1009F289F2803302106031D84288528F6
:100108009F282203031D89288A2890282A08B600D8
:100118003608A5000716071226082702031C95288B
:1001280096289F28A701A101A10A9F289F289F28F8
:100138009F289F289F28083083122806031DA5287A
:10014800A628B1282408031DAA28AB28B128250809
:10015800B6208312A401A40A1A28A4011A281A286E
:100168001A280B288312B40005100330B300B230EC
:10017800B200B20BBD28B30BBD2800008312B50135
:1001880008303502031CC928CA28CC28EA28EA28DE
:100198003418CF28D22883120514D42883120510C6
:1001A8000310B40C0330B300B230B200B20BDA283B
:1001B800B30BDA28000001308312B2003208B50709
:1001C80008303502031CE928EA28CC280514033036
:1001D800B300B230B200B20BEF28B30BEF28000027
:1001E80008008312AF0010100C103C308F00B030A4
:1001F8008E0010140130AE002E08A0070230200235
:10020800031C0729082915292F08031D0C290D2966
:1002180015292308031D11291229152900306421E5
:10022800152909308312280203181B291C292229A1
:100238002F0803192029212924292229A80129293D
:100248000130AE002E08A8072929080007308312BC
:1002580099003F308316850001178701831290109B
:10026800CF309005101510133C308F00B0308E0041
:100278000C1083160C14831210140B17831681129A
:100288008115992108000C1C4A294B294E29003058
:10029800F5204E298B1C5129522955298B10922162
:1002A80055290B1D582959295C290B117F215C29D7
:1002B800831231088A00300E8300DE0E5E0E0900BC
:1002C8008312AC0000308B1B0130AD008B132C0364
:1002D800031D6F29702973290B1287147929871038
:1002E800A101A201A7010B1679292D0C031C8B1360
:1002F80003188B17080003108312A90D051D852903
:10030800862987292914AB01AB0A080064008001FB
:10031800840A04060319003404068B298312A001F9
:10032800AF3081000B118B16080083120514831659
:0603380085140510080009
:02400E0093FF1E
:00000001FF
