:020000040000FA
:020000000B28CB
:10000800DE00030E8312B0000A08B10047290C284D
:100018008313203084002C308A21830113282A215D
:10002800003064218B17182883122B03031D1D2809
:100038001E289E288B122908B6003608AA00AB0194
:100048008B120130B6003608A7072108031D2D289A
:100058002E2843280F302A05B60009303606031D1E
:10006800362837289E2887168712A701A201A101E2
:10007800A10A8B130130F5208B179E289E28831226
:100088002103031D48284928662805302702031C38
:100098004E284F289E28A7011F302A05B600033096
:1000A8003606031D582859285E28A201A20A87157A
:1000B80087116028A20160280230B6003608A10026
:1000C8009E289E2802302106031D6B286C287E2856
:1000D80005302702031C712872289E28A7012A08C8
:1000E8001F39B6003608A6000330B6003608A1004E
:1000F8009E289E2803302106031D832884289E28D5
:100108002203031D882889288F282A08B600360864
:10011800A5000716071226082702031C942895280D
:100128009E28A701A101A10A9E289E289E289E28F4
:100138009E289E28083083122806031DA428A52877
:10014800B1282408031DA928AA2818282508B6209C
:100158008312A401A40A18281828A401182818280A
:1001680018280B288312B40005100330B300B230EE
:10017800B200B20BBD28B30BBD2800008312B50135
:1001880008303502031CC928CA28CC28EA28EA28DE
:100198003418CF28D22883120514D42883120510C6
:1001A8000310B40C0330B300B230B200B20BDA283B
:1001B800B30BDA28000001308312B2003208B50709
:1001C80008303502031CE928EA28CC280514033036
:1001D800B300B230B200B20BEF28B30BEF28000027
:1001E80008008312AF0010100C103C308F00B030A4
:1001F8008E0010140130AE002E08A0070230200235
:10020800031C0729082915292F08031D0C290D2966
:1002180015292308031D11291229152900306421E5
:10022800152909308312280203181B291C292229A1
:100238002F0803192029212924292229A80129293D
:100248000130AE002E08A8072929080007308312BC
:1002580099003F308316850001178701831290109B
:10026800CF309005101510133C308F00B0308E0041
:100278000C1083160C14831210140B17831681129A
:100288008115992108000C1C4A294B294E29003058
:10029800F5204E298B1C5129522955298B10922162
:1002A80055290B1D582959295C290B117F215C29D7
:1002B800831231088A00300E8300DE0E5E0E0900BC
:1002C8008312AC0000308B1B0130AD008B132C0364
:1002D800031D6F29702973290B1287147929871038
:1002E800A101A201A7010B1679292D0C031C8B1360
:1002F80003188B17080003108312A90D051D852903
:10030800862987292914AB01AB0A080064008001FB
:10031800840A04060319003404068B298312A001F9
:10032800AF3081000B118B16080083120514831659
:0603380085140510080009
:02400E0093FF1E
:00000001FF
