:020000040000FA
:020000000B28CB
:10000800DE00030E8312B0000A08B10041290C2853
:100018008313203084002C30842183011328242169
:1000280000305E218312A4018B171A282B03031DAD
:100038001E281F2899288B122908B6003608AA00FE
:10004800AB018B120130B6003608A7072108031D43
:100058002E282F2842280F302A05B60009303606E8
:10006800031D372838289928A701A201A101A10A50
:100078008B130130EF208B179928992883122103BD
:10008800031D47284828632805302702031C4D28EC
:100098004E289928A7011F302A05B60003303606D6
:1000A800031D572858285B28A201A20A5D28A2012F
:1000B8005D280230B6003608A10099289928023038
:1000C8002106031D682869287B2805302702031CA0
:1000D8006E286F289928A7012A081F39B600360804
:1000E800A6000330B6003608A100992899280330E5
:1000F8002106031D8028812899282203031D8528AD
:1001080086288A282A08B6003608A5002608270265
:10011800031C8F2890289928A701A101A10A9928D2
:100128009928992899289928992808308312280607
:10013800031D9F28A028AB282408031DA428A52850
:10014800AB282508B0208312A401A40A1A28A40108
:100158001A281A281A280B288312B400051003300D
:10016800B300B230B200B20BB728B30BB728000007
:100178008312B50108303502031CC328C428C628D9
:10018800E428E4283418C928CC2883120514CE287A
:10019800831205100310B40C0330B300B230B20060
:1001A800B20BD428B30BD428000001308312B2005C
:1001B8003208B50708303502031CE328E428C628AE
:1001C80005140330B300B230B200B20BE928B30B08
:1001D800E928000008008312AF0010100C103C3012
:1001E8008F00B0308E0010140130AE002E08A0072A
:1001F80002302002031C012902290F292F08031DA0
:10020800062907290F292308031D0B290C290F2963
:1002180000305E210F29093083122802031815299E
:1002280016291C292F0803191A291B291E291C29DC
:10023800A80123290130AE002E08A80723290800A9
:100248000730831299003F30831685000117870114
:1002580083129010CF309005101510133C308F008A
:10026800B0308E000C1083160C14831210140B1768
:10027800831681128115932108000C1C44294529F5
:1002880048290030EF2048298B1C4B294C294F293D
:100298008B108C214F290B1D5229532956290B11DC
:1002A80079215629831231088A00300E8300DE0E28
:1002B8005E0E09008312AC0000308B1B0130AD00CC
:1002C8008B132C03031D69296A296D290B128714C6
:1002D80073298710A101A201A7010B1673292D0C00
:1002E800031C8B1303188B17080003108312A90D26
:1002F800051D7F29802981292914AB01AB0A080033
:1003080064008001840A0406031900340406852960
:100318008312A001AF3081000B118B1608008312E5
:0A0328000514831685140510080063
:02400E0093FF1E
:00000001FF
