:020000040000FA
:020000000F28C7
:10000800DE00030E8312A2000408A3000A08A4005D
:100018005F08A50087288316FF2390008312142801
:100028008312A601A701A8018301BE288312A0009C
:10003800201C1F2820282228851423288510A01C6E
:1000480026282728292887162A288712201D2D28A0
:100058002E283028071631280712A01D34283528E5
:100068003728871538288711201E3B283C283E282A
:1000780007153F280711A01E422843284528871442
:1000880046288710201F49284A284C2807144D283D
:100098000710A01F50285128532805155528051169
:1000A800552808008312280803195B285D280130A9
:1000B8005E280030A1002108A800281864286728B5
:1000C800831205146928831205100130A100210844
:1000D800A70707302702031C722873288628A70160
:1000E8000130A1002108A60704302606031D7D283B
:1000F8007E288028A60180282608013E8400AA20A0
:100108001A20862808000B1D8A288B2890280B1196
:10011800303081005620902883122508DF002408FB
:100128008A0023088400220E8300DE0E5E0E09007A
:1001380007308312990483160510851005110710DE
:1001480087100711871107128712080000308A00EC
:100158000408840A82070034883444342234113471
:100168008316811281110730810430308312810097
:100178008B160800B4209C2000301A208B17C32847
:020188000F283E
:02400E00D4FFDD
:00000001FF
