:020000040000FA
:020000000F28C7
:10000800DE00030E8312A2000408A3000A08A4005D
:100018005F08A50074288316FF2390008312142814
:100028008312A601A7018301A8288312A000201C1F
:100038001E281F282128851422288510A01C252861
:1000480026282828871629288712201D2C282D289D
:100058002F28071630280712A01D332834283628E1
:10006800871537288711201E3A283B283D28071571
:100078003E280711A01E41284228442887144528F5
:100088008710201F482849284B2807144C28071098
:10009800A01F4F2850285228051554280511542808
:1000A800080001308312A1002108A70704302706A1
:1000B800031D5F2860287328A7010130A1002108CB
:1000C800A60704302606031D6A286B286D28A6019A
:1000D8006D282608013E8400942019207328080002
:1000E8000B1D772878287B2855200B117B28831235
:1000F8002508DF0024088A0023088400220E8300D4
:10010800DE0E5E0E090007308312990483168510EF
:1001180005110710871007118711071287120800A9
:1001280000308A000408840A820700348834443482
:100138002234113483168112811107308104C330AF
:10014800831281008B1608009E208720003019201A
:060158008B17AD280F28F3
:02400E00D4FFDD
:00000001FF
