:020000040000FA
:020000000F28C7
:10000800DE00030E8312A3000408A4000A08A5005A
:100018005F08A600BB2810288312AB01AC01AD0114
:10002800AE01AF01B001B101B201B301B401830166
:1000380048298312871587113303031D242825288F
:10004800B228031005190314AD0D9C3081000B1163
:100058008B16B3012C08031D322833284A28B40113
:100068000130A0002008B20704303206031D3D28E5
:100078003E28BA2809302D06031D43284428BA28EB
:10008800AD01AC01AC0ABA28BA28BA282C03031D62
:100098004E284F286E280130A0002008B2070530EE
:1000A8003206031D58285928BA28013084004121F6
:1000B800A0002D082006031D622863286628AB01CE
:1000C800AB0A6828AB0168280230A0002008AC0001
:1000D800BA28BA2802302C06031D732874288E28E3
:1000E8000130A0002008B20705303206031D7D2824
:1000F8007E28BA281F302D020318832884288828D0
:100108002D08A0002008AF000330A0002008AC0094
:10011800BA28BA2803302C06031D93289428BA2835
:100128002B03031D98289928A0282D08A000200833
:10013800AE0087168712A0280130A0002008B20759
:1001480032082F06031DA928AA28BA28AC01AC0A30
:10015800BA28BA28BA28BA28BA28BA28B301B30ADA
:100168000508A0002008A1008B11BA2808000C1C63
:10017800BE28BF28D1282521093083123406031D43
:10018800C628C728CA28B4014C21D12801308312B7
:10019800A2002208B407D128D1280B1CD428D528BE
:1001A800D7283821D7280B1DDA28DB28DD281D2081
:1001B800DD2883122608DF0025088A002408840029
:1001C800230E8300DE0E5E0E09008312A9000030A4
:1001D8008B1B0130AA008B132903031DF428F52873
:1001E800F8288B15871406298710B301B30AAC01C8
:1001F800AD01AB010508A7002708A800831616154E
:100208008B15062983122A0C031C8B1303188B17D2
:100218000800073083129904831605158710071103
:1002280087110712871283129010CF30900510158E
:10023800101325218316811281150030E9200B1730
:10024800080000308B1B01308312A0008B131010A4
:100258000C10C3308F0050308E001014200C031C7B
:100268008B1303188B1708008B11831207160712BC
:100278006A3081000B118B16080001308A000408CF
:10028800840A8207003400340D218B174A290F286D
:0202980008005C
:02400E0093FF1E
:00000001FF
