:020000040000FA
:020000000F28C7
:10000800DE00030E8312B1000408B2000A08B30030
:100018005F08B400BF2810288312A001A101A20123
:10002800A301A401A501A601A701A801A901AA018C
:10003800830157298312871587112903031D252852
:100048002628B628031005190314A20D9C30810038
:100058000B118B16A9012108031D332834284E28BB
:10006800AA010130AB002B08A80704302806031D9D
:100078003E283F28BE280F302205AB0009302B064A
:10008800031D47284828BE28A201A101A10ABE28AD
:10009800BE28BE282103031D522853287228013088
:1000A800AB002B08A80705302806031D5C285D282F
:1000B800BE28013084005021AB0022082B06031D06
:1000C800662867286A28A001A00A6C28A0016C2865
:1000D8000230AB002B08A100BE28BE280230210642
:1000E800031D7728782892280130AB002B08A80731
:1000F80005302806031D81288228BE281F302202C9
:100108000318872888288C282208AB002B08A5000C
:100118000330AB002B08A100BE28BE2803302106FF
:10012800031D97289828BE282003031D9C289D2876
:10013800A4282208AB002B08A40087168712A4283D
:100148000130AB002B08A80728082506031DAD2899
:10015800AE28BE28A101A10ABE28BE28BE28BE28F6
:10016800BE28BE28A901A90A0508AB002B08AC00C7
:100178008B11BE2808000C1CC228C328D5282E21A4
:10018800093083122A06031DCA28CB28CE28AA01C3
:100198005B21D52801308312B0003008AA07D52882
:1001A800D5280B1CD828D928DB284421DB280B1D8F
:1001B800DE28DF28E1281E20E12883123408DF002A
:1001C80033088A0032088400310E8300DE0E5E0E8A
:1001D80009008312AD0000308B1B0130AE008B1379
:1001E8002D03031DF828F928FC288B1187140829EA
:1001F8008710A901A90AA101A201A0010508AB0065
:100208002B08AC008B1508292E0C031C8B13031824
:100218008B17080007308312990483160515871079
:10022800071187110712871283129010CF3090059B
:10023800101510133C308F00B0308E000C10831650
:100248000C148312101483168112811516150030B0
:10025800ED200800831210103C308F00B0308E0063
:100268000C1010140130AF002F08A307023023022E
:10027800031C3F29402943290030ED204329080069
:100288008B11831207160712A301A901A90A6A3064
:1002980081000B118B16080001308A000408840ABB
:1002A8008207003400340E218B1759290F280800C3
:02400E0093FF1E
:00000001FF
