:020000040000FA
:020000000B28CB
:10000800DE00030E8312B0000A08B1009C280C28F9
:100018008313203084002C30202183011328C8202A
:100028000030E4208B17182883122B03031D1D288A
:100038001E2818288B122908B2003208AA00AB0122
:100048008B120130B2003208A8072308031D2D289F
:100058002E283F280F302A05B20009303206031D2A
:1000680036283728182887168712A801A201A30165
:10007800A30A182818282303031D432844286328A3
:1000880005302802031C49284A281828A8010130ED
:1000980084002821B2002A081F393206031D55287A
:1000A80056285B28A201A20A871587115D28A2019C
:1000B8005D280230B2003208A30018281828023040
:1000C8002306031D682869287B2805302802031C9D
:1000D8006E286F281828A8012A081F39B20032088C
:1000E800A5000330B2003208A300182818280330EE
:1000F8002306031D8028812818282203031D85282C
:1001080086288A282A08B2003208A400250828026E
:10011800031C8F2890289228A8019228A301A30ADB
:1001280018281828182818281828182818280B28D4
:100138000C1C9F28A028B228FF2009308312200613
:10014800031DA728A828AB28A0013621B228013012
:100158008312AF002F08A007B228B2288B1CB5283D
:10016800B628B9288B102F21B9280B1DBC28BD280B
:10017800C0280B111521C028831231088A00300EBF
:100188008300DE0E5E0E09000730831299003F30AF
:10019800831685000117870183129010CF309005D0
:1001A800101510133C308F00B0308E000C108316E1
:1001B8000C14831210140B17831681128115080072
:1001C8008312AC0000308B1B0130AD008B132C0365
:1001D800031DEF28F028F3280B128714F92887103D
:1001E800A301A201A8010B16F9282D0C031C8B13DF
:1001F80003188B170800831210100C103C308F0066
:10020800B0308E0010140130AE002E08A107023065
:100218002102031C1029112914290030E420142973
:10022800080003108312A90D051D1B291C291D296F
:100238002914AB01AB0A080064008001840A040693
:10024800031900340406212901308A000408840AAD
:100258008207003403348312A101AF3081000B11EF
:060268008B1608000800DF
:02400E0093FF1E
:00000001FF
