:020000040000FA
:020000000F28C7
:10000800DE00030E8312AB000408AC000A08AD0042
:100018005F08AE00A42810288312A001A101A20144
:10002800A301A401A501A601A701A801830105292F
:100038000310831205180314A20D10102108031DC4
:10004800262827283E28A8010130A9002908A70743
:1000580004302706031D31283228A3280930220638
:10006800031D37283828A328A201A101A10AA32823
:10007800A328A3282103031D42284328622801300E
:10008800A9002908A70705302706031D4C284D2875
:10009800A32801308400F820A90022082906031D9E
:1000A800562857285A28A001A00A5C28A0015C28D5
:1000B8000230A9002908A100A328A328023021069C
:1000C800031D6728682882280130A9002908A70786
:1000D80005302706031D71287228A3281F30220225
:1000E8000318772878287C282208A9002908A40062
:1000F8000330A9002908A100A328A328033021065A
:10010800031D87288828A3282003031D8C288D28F1
:1001180092282208A9002908A30092280130A900E2
:100128002908A70727082406031D9B289C28A3281D
:10013800A101A10AA328A328A328A328A32808006B
:100148000B1DA728A828BA28E520093083122806FD
:10015800031DAF28B028B328A8011321BA280130FD
:100168008312AA002A08A807BA28BA280B1CBD2897
:10017800BE28C028FF20C0288B1FC328C428C62833
:100188001C20C62883122E08DF002D088A002C08A0
:1001980084002B0E8300DE0E5E0E090000308B1BE0
:1001A80001308312AF008B1310100B11C3308F0076
:1001B80050308E0010142F0C031C8B1303188B1750
:1001C800080000308B1B01308312A9008B1310101C
:1001D8000B11C3308F0050308E001014290C031CF3
:1001E8008B1303188B17080000308A000408840A50
:1001F800820700340034023083128F008E011014FD
:1002080008000F218B17082908290F288312A1013C
:10021800A201A0010800D2200A210B17080008003B
:02400E00B3FFFE
:00000001FF
