:020000040000FA
:020000000F28C7
:10000800DE00030E8312A3000408A4000A08A5005A
:100018005F08A600BD2810288312AB01AC01AD0112
:10002800AE01AF01B001B101B201B301B401830166
:10003800452983123303031D22282328B4280310DB
:1000480005190314AD0D9C3081000B118B16B301FB
:100058002C08031D302831284A28B4010716071236
:100068000130A0002008B20704303206031D3D28E5
:100078003E28BC2809302D06031D43284428BC28E7
:10008800AD01AC01AC0ABC28BC28BC282C03031D5C
:100098004E284F2870280130A0002008B2070530EC
:1000A8003206031D58285928BC28013084003721FE
:1000B800A0002D082006031D622863286828AB01CC
:1000C800AB0A871587116A28AB016A280230A0009D
:1000D8002008AC00BC28BC2802302C06031D75285B
:1000E800762890280130A0002008B2070530320693
:1000F800031D7F288028BC281F302D02031885285F
:1001080086288A282D08A0002008AF000330A00008
:100118002008AC00BC28BC2803302C06031D9528F9
:100128009628BC282B03031D9A289B28A2282D0853
:10013800A0002008AE0087168712A2280130A00070
:100148002008B20732082F06031DAB28AC28BC28AC
:10015800AC01AC0ABC28BC28BC28BC28BC28BC28DC
:10016800B301B30A0508A0002008A1008B11BC2820
:1001780008000B1DC028C128D32824210930831268
:100188003406031DC828C928CC28B4014A21D3281D
:1001980001308312A2002208B407D328D3280B1CED
:1001A800D628D728D9283E21D9288B1FDC28DD2836
:1001B800DF281D20DF2883122608DF0025088A0093
:1001C80024088400230E8300DE0E5E0E09008312CD
:1001D800A90000308B1B0130AA008B132903031DD3
:1001E800F628F728FA288B15871408298710B301F1
:1001F800B30AAC01AD01AB010508A7002708A800A8
:10020800831616158B15082983122A0C031C8B13C9
:1002180003188B17080007308312990483160714F4
:100228008710071187110712871283129010CF3099
:1002380090051015101324210030EB200B1708002F
:1002480000308B1B01308312A0008B1310100B1190
:10025800C3308F0050308E001014200C031C8B13F9
:1002680003188B17080001308A000408840A8207E3
:10027800003400348B116A30831281000B118B1605
:0E02880008000F218B17482948290F2808006D
:02400E0093FF1E
:00000001FF
