:020000040000FA
:020000000B28CB
:10000800DE00030E8312B0000A08B1009B280C28FA
:100018008313203084002C30212183011328C7202A
:100028000030E3208B17182883122B03031D1D288B
:100038001E2818288B122908B2003208AA00AB0122
:100048008B120130B2003208A8072308031D2D289F
:100058002E284028071607120F302A05B20009304B
:100068003206031D38283928182887168712A80150
:10007800A201A301182818282303031D4428452892
:10008800622805302802031C4A284B281828A80192
:10009800013084002921B2002A081F393206031DC5
:1000A800562857285A28A201A20A5C28A2015C28CF
:1000B8000230B2003208A30018281828023023069C
:1000C800031D672868287A2805302802031C6D2834
:1000D8006E281828A8012A081F39B2003208A5007E
:1000E8000330B2003208A30018281828033023066A
:1000F800031D7F28802818282203031D84288528AB
:1001080089282A08B2003208A40025082802031CFE
:100118008E288F289128A8019128A301A30A1828BE
:100128001828182818281828182818280B280C1CEC
:100138009E289F28B128FE20093083122006031D1F
:10014800A628A728AA28A0013721B12801308312A0
:10015800AF002F08A007B128B1288B1CB428B528F8
:10016800B8288B103021B8280B1DBB28BC28BF2805
:100178000B111421BF28831231088A00300E830026
:10018800DE0E5E0E09000730831299003F30831699
:1001980085000117870183129010CF309005101544
:1001A80010133C308F00B0308E000C1083160C14E6
:1001B800831210140B1783168112811508008312FD
:1001C800AC0000308B1B0130AD008B132C03031DDA
:1001D800EE28EF28F2280B128714F8288710A301BD
:1001E800A201A8010B16F8282D0C031C8B13031869
:1001F8008B170800831210100C103C308F00B030A1
:100208008E0010140130AE002E08A1070230210222
:10021800031C0F29102913290030E3201329080093
:100228008312871587110310A90D051D1C291D2987
:100238001E292914AB01AB0A080064008001840A56
:100248000406031900340406222901308A00040830
:10025800840A8207003400348312A101AF30810080
:080268000B118B1608000800C1
:02400E0093FF1E
:00000001FF
