:020000040000FA
:020000000B28CB
:10000800DE00030E8312AB000A08AC001A280C2885
:100018008312A001A101A201A301A401A501A601C7
:10002800A701A801A901AA0183013D288B1C1D284D
:100038001E2821288B104120212883122C088A0091
:100048002B0E8300DE0E5E0E090007308312990026
:100058003F308316850087010C1081128115011726
:100068000B16080000308A000408840A820700344E
:10007800003429208B173F280B28831207160712F4
:0200880008006E
:02400E0093FF1E
:00000001FF
