:020000040000FA
:060000000A128A110C280F
:10000800FE00030EF8000A08F9000A128A11AA294C
:100018000A128A110F28F001F101F201F301F4012B
:1000280083120313A001A101A201A301A401A50148
:10003800A601A701A801A901AA01AB0183010A121F
:100048008A11E5287408031D2A282B282E28E4285D
:10005800E428E4287403031D322833283E28831239
:10006800031305108714F301F7010230F500750832
:10007800F400E42802307406031D43284428AB2802
:100088007708031D4828492895287308031D4D281B
:100098004E2859280930F5007508F6000830F50093
:1000A8007508F700F301F30A95287303031D5D280B
:1000B8005E286B280330F5007508F6001030F5004F
:1000C8007508F7000230F5007508F300952802302E
:1000D8007306031D702871287E280730F5007508FF
:1000E800F6001030F5007508F7000330F5007508C4
:1000F800F300952803307306031D83288428952868
:100108005530F5007508F6008030F5007508F700E1
:100118000430F5007508F30095289528952895284A
:1001280095287708031999289A28A2288312031377
:1001380005140330F5007508F400E428831203134E
:1001480005100530F5007508F400E428E4280330AC
:100158007406031DB028B128C62876087705031948
:10016800B628B728BB28831203130514BF288312A7
:1001780003130510BF280310F70C0430F5007508A9
:10018800F400E42804307406031DCB28CC28D428B6
:100198008312031305100230F5007508F400E428F3
:1001A80005307406031DD928DA28E42883120313BE
:1001B8008710F401E428E428E428E428E428E42863
:1001C80008000A128A1185210A128A118312031360
:1001D800B0010830B5003508B10000300A128A11A4
:1001E8005A210A128A11553083120313B5003508B3
:1001F800B00000300A128A11E6210A128A1183120D
:100208000313B001B00A0830B5003508B100013059
:100218000A128A115A210A128A11AA308312031368
:10022800B5003508B00000300A128A11E6210A121A
:100238008A11033083120313B5003508B000083063
:10024800B6003608B10002300A128A115A210A1281
:100258008A11153083120313B5003508B000003039
:100268000A128A11E6210A128A1103308312031333
:10027800B5003508B0000830B6003608B1000330C4
:100288000A128A115A210A128A114D308312031355
:10029800B5003508B00000300A128A11E6210A12AA
:1002A8008A118B1756290A128A110C2883120313F4
:1002B800B4003008B2000330B3003308AC0034088F
:1002C8000A128A11CB210A128A11203E8400831255
:1002D80003133208831380003108B2000330B300DF
:1002E8003308AC0034080A128A11CB210A128A1189
:1002F800013E203E840083120313320883138000DA
:100308000800831603138112811107308104C3305A
:100318008312031381008B16FC30920587309205F7
:1003280064308316031392008312031312150B17FC
:10033800831603138C141F08F03906389F008312A4
:100348000313051083160313051008000B1DAD29B0
:10035800AE29B5290A128A11FE210A128A110B1137
:10036800B529831203138C1CBA29BB29C4290A1284
:100378008A1126200A128A11831203138C10C429A9
:1003880079088A00780E8300FE0E7E0E090083121B
:100398000313AF00AE01D0292F1CD329D429D929A2
:1003A8002C08AD002D08AE07D9290310AC0D031099
:1003B800AF0C2F08031DE129E229D029E3292E08D3
:1003C800E529080083120313B3003008B100033095
:1003D800B2003208AC0033080A128A11CB210A1283
:1003E8008A11023E203E84008312031331088313CE
:1003F800800008000130F5007508F0070A30700623
:10040800031D072A082A0A2AF0010A2A7008031D70
:100418000E2A0F2A152A0A128A1116220A128A117E
:0E042800152A0800F201F20AF401F40A080095
:02400E007AFF37
:00000001FF
