:020000040000FA
:060000000A128A110E280D
:10000800FE00030EF6000408F7000A08F8000A12BA
:100018008A11B3290A128A111128F901FA01FB0180
:1000280083132030840031300A128A1167220A12A1
:100038008A1183010A128A111329831203133008C3
:10004800031D272828282B281229122912293003B2
:10005800031D2F2830283A2805108714AF01AD0159
:10006800AC010230F4007408B000122902303006E6
:10007800031D3F284028E1282D08031D4428452852
:10008800CF282F08031D49284A2855280930F4008D
:100098007408AE000830F4007408AD00AF01AF0A70
:1000A800CF282F03031D59285A2876280330F40037
:1000B8007408F0002C080A128A111E220A128A11EA
:1000C800203E840083130008F5007508831203138B
:1000D800AE001030F4007408AD000230F40074086B
:1000E800AF00CF2802302F06031D7B287C289928D3
:1000F8000330F4007408F0002C080A128A111E223A
:100108000A128A11013E203E840083130008F5007C
:10011800750883120313AE001030F4007408AD00A4
:100128000330F4007408AF00CF2803302F06031DF6
:100138009E289F28CF280330F4007408F0002C086C
:100148000A128A111E220A128A11023E203E8400D7
:1001580083130008F500750883120313AE0080307E
:10016800F4007408AD000130F4007408AC070430E2
:100178002C020318C028C128C428AF01AF0ACF2811
:10018800AC010430F4007408AF00CF28CF28CF2882
:10019800CF28CF28CF282D080319D328D428DA2828
:1001A80005140330F4007408B00012290510053056
:1001B800F4007408B0001229122903303006031D18
:1001C800E628E728F8282E082D050319EC28ED283D
:1001D800EF280514F1280510F1280310AD0C0430A0
:1001E800F4007408B000122904303006031DFD28FD
:1001F800FE28042905100230F4007408B000122902
:1002080005303006031D09290A2912298710B00173
:1002180012291229122912291229122908000A1250
:100228008A11DE210A128A1183120313B5010830DC
:10023800BA003A08B60000300A128A1188210A1258
:100248008A11553083120313BA003A08B5000030FA
:100258000A128A1137220A128A1183120313B5016E
:10026800B50A0830BA003A08B60001300A128A11F5
:1002780088210A128A11AA3083120313BA003A0895
:10028800B50001300A128A1137220A128A11023087
:1002980083120313BA003A08B5000830BB003B08C4
:1002A800B60002300A128A1188210A128A11153002
:1002B80083120313BA003A08B50002300A128A11F1
:1002C80037220A128A11033083120313BA003A083C
:1002D800B5000830BB003B08B60003300A128A118B
:1002E80088210A128A114D3083120313BA003A0882
:1002F800B50003300A128A1137220A128A118B17A5
:1003080084290A128A110E2883120313B9003508AA
:10031800B7000330B8003808B10039080A128A114A
:1003280003220A128A11203E84008312031337081D
:10033800831380003608B7000330B8003808B100CE
:1003480039080A128A1103220A128A11013E203E34
:1003580084008312031337088313800008000B1DE1
:10036800B629B729C2293D308312031381000B1126
:100378000A128A114F220A128A11C2298312031300
:100388008C1CC729C829D529643083160313920009
:10039800831203138C100A128A1121200A128A115F
:1003A800D52978088A0077088400760E8300FE0E27
:1003B8007E0E090083160313811281110730810410
:1003C8003D308312031381008B16FC309205873071
:1003D80092056430831603139200831203131215D7
:1003E8000B17831603138C141F08F03906389F0067
:1003F80083120313051083160313051008008312D4
:100408000313B400B301082A341C0B2A0C2A112A3E
:100418003108B2003208B307112A0310B10D0310D6
:10042800B40C3408031D192A1A2A082A1B2A33086F
:100438001D2A0800F200F301212A721C242A252A09
:100448002A2A7008F1007108F3072A2A0310F00D10
:100458000310F20C7208031D322A332A212A342A87
:100468007308362A080083120313B8003508B6004B
:100478000330B7003708B10038080A128A1103227E
:100488000A128A11023E203E8400831203133608A2
:100498008313800008000130F0007008F9070A3063
:1004A8007906031D582A592A5B2AF9015B2A79081B
:1004B800031D5F2A602A662A0A128A116F220A120D
:1004C8008A11662A080064008001840A0406031958
:1004D80000340406682AFB01FB0A83120313B001E7
:0404E800B00A08004E
:02400E007AFF37
:00000001FF
