:020000040000FA
:060000000A128A110C280F
:10000800FE00030EF8000A08F9000A128A11852971
:100018000A128A110F28F001F101F201F301F4012B
:1000280083120313A001A101A201A301A401A50148
:10003800A601A701A801A901AA01AB0183010A121F
:100048008A11E5287408031D2A282B282E28E4285D
:10005800E428E4287403031D322833283E28831239
:10006800031305108714F301F7010230F500750832
:10007800F400E42802307406031D43284428AB2802
:100088007708031D4828492895287308031D4D281B
:100098004E2859280930F5007508F6000830F50093
:1000A8007508F700F301F30A95287303031D5D280B
:1000B8005E286B280330F5007508F6001030F5004F
:1000C8007508F7000230F5007508F300952802302E
:1000D8007306031D702871287E280730F5007508FF
:1000E800F6001030F5007508F7000330F5007508C4
:1000F800F300952803307306031D83288428952868
:100108005530F5007508F6008030F5007508F700E1
:100118000430F5007508F30095289528952895284A
:1001280095287708031999289A28A2288312031377
:1001380005140330F5007508F400E428831203134E
:1001480005100530F5007508F400E428E4280330AC
:100158007406031DB028B128C62876087705031948
:10016800B628B728BB28831203130514BF288312A7
:1001780003130510BF280310F70C0430F5007508A9
:10018800F400E42804307406031DCB28CC28D428B6
:100198008312031305100230F5007508F400E428F3
:1001A80005307406031DD928DA28E42883120313BE
:1001B8008710F401E428E428E428E428E428E42863
:1001C80008000A128A11AE210A128A118312031337
:1001D800B0010830B5003508B10000300A128A11A4
:1001E8005A210A128A11553083120313B5003508B3
:1001F800B00000300A128A11EE210A128A11831205
:100208000313B001B00A0830B5003508B100013059
:100218000A128A115A210A128A11AA308312031368
:10022800B5003508B00000300A128A11EE210A1212
:100238008A11033083120313B5003508B000083063
:10024800B6003608B10002300A128A115A210A1281
:100258008A11153083120313B5003508B000003039
:100268000A128A11EE210A128A110330831203132B
:10027800B5003508B0000830B6003608B1000330C4
:100288000A128A115A210A128A114D308312031355
:10029800B5003508B00000300A128A11EE210A12A2
:1002A8008A118B1756290A128A110C2883120313F4
:1002B800B4003008B2000330B3003308AC0034088F
:1002C8000A128A11D3210A128A11203E840083124D
:1002D80003133208831380003108B2000330B300DF
:1002E8003308AC0034080A128A11D3210A128A1181
:1002F800013E203E840083120313320883138000DA
:1003080008000B1D8829892994293D30831203137D
:1003180081000B110A128A1106220A128A119429E5
:10032800831203138C1C99299A29A72964308316F0
:1003380003139200831203138C100A128A112620C9
:100348000A128A11A72979088A00780E8300FE0EFE
:100358007E0E090083160313811281110730810470
:100368003D308312031381008B16FC3092058730D1
:100378009205643083160313920083120313121537
:100388000B17831603138C141F08F03906389F00C7
:100398008312031305108316031305100800831234
:1003A8000313AF00AE01D8292F1CDB29DC29E12972
:1003B8002C08AD002D08AE07E1290310AC0D031081
:1003C800AF0C2F08031DE929EA29D829EB292E08A3
:1003D800ED29080083120313B3003008B10003307D
:1003E800B2003208AC0033080A128A11D3210A126B
:1003F8008A11023E203E84008312031331088313BE
:10040800800008000130F5007508F0070A30700612
:10041800031D0F2A102A122AF001122A7008031D40
:10042800162A172A1D2A0A128A111E220A128A114E
:0E0438001D2A0800F201F20AF401F40A08007D
:02400E007AFF37
:00000001FF
